{
  "contractName": "Company",
  "abi": [
    {
      "inputs": [],
      "stateMutability": "nonpayable",
      "type": "constructor"
    },
    {
      "inputs": [],
      "name": "name",
      "outputs": [
        {
          "internalType": "string",
          "name": "",
          "type": "string"
        }
      ],
      "stateMutability": "view",
      "type": "function",
      "constant": true
    },
    {
      "inputs": [],
      "name": "owner",
      "outputs": [
        {
          "internalType": "address",
          "name": "",
          "type": "address"
        }
      ],
      "stateMutability": "view",
      "type": "function",
      "constant": true
    },
    {
      "inputs": [
        {
          "internalType": "string",
          "name": "",
          "type": "string"
        }
      ],
      "name": "products",
      "outputs": [
        {
          "internalType": "address",
          "name": "",
          "type": "address"
        }
      ],
      "stateMutability": "view",
      "type": "function",
      "constant": true
    },
    {
      "inputs": [
        {
          "internalType": "string",
          "name": "_id",
          "type": "string"
        },
        {
          "internalType": "string",
          "name": "_name",
          "type": "string"
        }
      ],
      "name": "createProduct",
      "outputs": [],
      "stateMutability": "nonpayable",
      "type": "function"
    },
    {
      "inputs": [
        {
          "internalType": "string",
          "name": "_id",
          "type": "string"
        }
      ],
      "name": "verifyProduct",
      "outputs": [
        {
          "internalType": "bool",
          "name": "",
          "type": "bool"
        }
      ],
      "stateMutability": "view",
      "type": "function",
      "constant": true
    }
  ],
  "bytecode": "0x608060405234801561001057600080fd5b5033600160006101000a81548173ffffffffffffffffffffffffffffffffffffffff021916908373ffffffffffffffffffffffffffffffffffffffff1602179055506040518060400160405280600481526020017f4e696b65000000000000000000000000000000000000000000000000000000008152506002908051906020019061009d9291906100a3565b506101a7565b8280546100af90610175565b90600052602060002090601f0160209004810192826100d15760008555610118565b82601f106100ea57805160ff1916838001178555610118565b82800160010185558215610118579182015b828111156101175782518255916020019190600101906100fc565b5b5090506101259190610129565b5090565b5b8082111561014257600081600090555060010161012a565b5090565b7f4e487b7100000000000000000000000000000000000000000000000000000000600052602260045260246000fd5b6000600282049050600182168061018d57607f821691505b602082108114156101a1576101a0610146565b5b50919050565b6111d8806101b66000396000f3fe60806040523480156200001157600080fd5b50600436106200005e5760003560e01c80630186a423146200006357806306fdde03146200009957806387592bce14620000bb5780638da5cb5b14620000db57806392efc45314620000fd575b600080fd5b6200008160048036038101906200007b919062000547565b62000133565b604051620000909190620005dd565b60405180910390f35b620000a36200017c565b604051620000b291906200068d565b60405180910390f35b620000d96004803603810190620000d39190620006b1565b62000212565b005b620000e562000312565b604051620000f49190620005dd565b60405180910390f35b6200011b600480360381019062000115919062000547565b62000338565b6040516200012a919062000753565b60405180910390f35b6000818051602081018201805184825260208301602085012081835280955050505050506000915054906101000a900473ffffffffffffffffffffffffffffffffffffffff1681565b600280546200018b906200079f565b80601f0160208091040260200160405190810160405280929190818152602001828054620001b9906200079f565b80156200020a5780601f10620001de576101008083540402835291602001916200020a565b820191906000526020600020905b815481529060010190602001808311620001ec57829003601f168201915b505050505081565b600160009054906101000a900473ffffffffffffffffffffffffffffffffffffffff1673ffffffffffffffffffffffffffffffffffffffff163373ffffffffffffffffffffffffffffffffffffffff16146200026d57600080fd5b60008282336040516200028090620003c3565b6200028e93929190620007d5565b604051809103906000f080158015620002ab573d6000803e3d6000fd5b50905080600084604051620002c1919062000862565b908152602001604051809103902060006101000a81548173ffffffffffffffffffffffffffffffffffffffff021916908373ffffffffffffffffffffffffffffffffffffffff160217905550505050565b600160009054906101000a900473ffffffffffffffffffffffffffffffffffffffff1681565b60008073ffffffffffffffffffffffffffffffffffffffff1660008360405162000363919062000862565b908152602001604051809103902060009054906101000a900473ffffffffffffffffffffffffffffffffffffffff1673ffffffffffffffffffffffffffffffffffffffff161415620003b95760009050620003be565b600190505b919050565b610927806200087c83390190565b6000604051905090565b600080fd5b600080fd5b600080fd5b600080fd5b6000601f19601f8301169050919050565b7f4e487b7100000000000000000000000000000000000000000000000000000000600052604160045260246000fd5b6200043a82620003ef565b810181811067ffffffffffffffff821117156200045c576200045b62000400565b5b80604052505050565b600062000471620003d1565b90506200047f82826200042f565b919050565b600067ffffffffffffffff821115620004a257620004a162000400565b5b620004ad82620003ef565b9050602081019050919050565b82818337600083830152505050565b6000620004e0620004da8462000484565b62000465565b905082815260208101848484011115620004ff57620004fe620003ea565b5b6200050c848285620004ba565b509392505050565b600082601f8301126200052c576200052b620003e5565b5b81356200053e848260208601620004c9565b91505092915050565b60006020828403121562000560576200055f620003db565b5b600082013567ffffffffffffffff811115620005815762000580620003e0565b5b6200058f8482850162000514565b91505092915050565b600073ffffffffffffffffffffffffffffffffffffffff82169050919050565b6000620005c58262000598565b9050919050565b620005d781620005b8565b82525050565b6000602082019050620005f46000830184620005cc565b92915050565b600081519050919050565b600082825260208201905092915050565b60005b838110156200063657808201518184015260208101905062000619565b8381111562000646576000848401525b50505050565b60006200065982620005fa565b62000665818562000605565b93506200067781856020860162000616565b6200068281620003ef565b840191505092915050565b60006020820190508181036000830152620006a981846200064c565b905092915050565b60008060408385031215620006cb57620006ca620003db565b5b600083013567ffffffffffffffff811115620006ec57620006eb620003e0565b5b620006fa8582860162000514565b925050602083013567ffffffffffffffff8111156200071e576200071d620003e0565b5b6200072c8582860162000514565b9150509250929050565b60008115159050919050565b6200074d8162000736565b82525050565b60006020820190506200076a600083018462000742565b92915050565b7f4e487b7100000000000000000000000000000000000000000000000000000000600052602260045260246000fd5b60006002820490506001821680620007b857607f821691505b60208210811415620007cf57620007ce62000770565b5b50919050565b60006060820190508181036000830152620007f181866200064c565b905081810360208301526200080781856200064c565b9050620008186040830184620005cc565b949350505050565b600081905092915050565b60006200083882620005fa565b62000844818562000820565b93506200085681856020860162000616565b80840191505092915050565b60006200087082846200082b565b91508190509291505056fe60806040523480156200001157600080fd5b506040516200092738038062000927833981810160405281019062000037919062000365565b82600090805190602001906200004f929190620000b3565b5080600160006101000a81548173ffffffffffffffffffffffffffffffffffffffff021916908373ffffffffffffffffffffffffffffffffffffffff1602179055508160029080519060200190620000a9929190620000b3565b5050505062000464565b828054620000c1906200042e565b90600052602060002090601f016020900481019282620000e5576000855562000131565b82601f106200010057805160ff191683800117855562000131565b8280016001018555821562000131579182015b828111156200013057825182559160200191906001019062000113565b5b50905062000140919062000144565b5090565b5b808211156200015f57600081600090555060010162000145565b5090565b6000604051905090565b600080fd5b600080fd5b600080fd5b600080fd5b6000601f19601f8301169050919050565b7f4e487b7100000000000000000000000000000000000000000000000000000000600052604160045260246000fd5b620001cc8262000181565b810181811067ffffffffffffffff82111715620001ee57620001ed62000192565b5b80604052505050565b60006200020362000163565b9050620002118282620001c1565b919050565b600067ffffffffffffffff82111562000234576200023362000192565b5b6200023f8262000181565b9050602081019050919050565b60005b838110156200026c5780820151818401526020810190506200024f565b838111156200027c576000848401525b50505050565b600062000299620002938462000216565b620001f7565b905082815260208101848484011115620002b857620002b76200017c565b5b620002c58482856200024c565b509392505050565b600082601f830112620002e557620002e462000177565b5b8151620002f784826020860162000282565b91505092915050565b600073ffffffffffffffffffffffffffffffffffffffff82169050919050565b60006200032d8262000300565b9050919050565b6200033f8162000320565b81146200034b57600080fd5b50565b6000815190506200035f8162000334565b92915050565b6000806000606084860312156200038157620003806200016d565b5b600084015167ffffffffffffffff811115620003a257620003a162000172565b5b620003b086828701620002cd565b935050602084015167ffffffffffffffff811115620003d457620003d362000172565b5b620003e286828701620002cd565b9250506040620003f5868287016200034e565b9150509250925092565b7f4e487b7100000000000000000000000000000000000000000000000000000000600052602260045260246000fd5b600060028204905060018216806200044757607f821691505b602082108114156200045e576200045d620003ff565b5b50919050565b6104b380620004746000396000f3fe608060405234801561001057600080fd5b506004361061004c5760003560e01c806306fdde03146100515780631a6952301461006f5780638da5cb5b1461008b578063af640d0f146100a9575b600080fd5b6100596100c7565b6040516100669190610340565b60405180910390f35b610089600480360381019061008491906103c5565b610155565b005b6100936101f3565b6040516100a09190610401565b60405180910390f35b6100b1610219565b6040516100be9190610340565b60405180910390f35b600280546100d49061044b565b80601f01602080910402602001604051908101604052809291908181526020018280546101009061044b565b801561014d5780601f106101225761010080835404028352916020019161014d565b820191906000526020600020905b81548152906001019060200180831161013057829003601f168201915b505050505081565b600160009054906101000a900473ffffffffffffffffffffffffffffffffffffffff1673ffffffffffffffffffffffffffffffffffffffff163373ffffffffffffffffffffffffffffffffffffffff16146101af57600080fd5b80600160006101000a81548173ffffffffffffffffffffffffffffffffffffffff021916908373ffffffffffffffffffffffffffffffffffffffff16021790555050565b600160009054906101000a900473ffffffffffffffffffffffffffffffffffffffff1681565b600080546102269061044b565b80601f01602080910402602001604051908101604052809291908181526020018280546102529061044b565b801561029f5780601f106102745761010080835404028352916020019161029f565b820191906000526020600020905b81548152906001019060200180831161028257829003601f168201915b505050505081565b600081519050919050565b600082825260208201905092915050565b60005b838110156102e15780820151818401526020810190506102c6565b838111156102f0576000848401525b50505050565b6000601f19601f8301169050919050565b6000610312826102a7565b61031c81856102b2565b935061032c8185602086016102c3565b610335816102f6565b840191505092915050565b6000602082019050818103600083015261035a8184610307565b905092915050565b600080fd5b600073ffffffffffffffffffffffffffffffffffffffff82169050919050565b600061039282610367565b9050919050565b6103a281610387565b81146103ad57600080fd5b50565b6000813590506103bf81610399565b92915050565b6000602082840312156103db576103da610362565b5b60006103e9848285016103b0565b91505092915050565b6103fb81610387565b82525050565b600060208201905061041660008301846103f2565b92915050565b7f4e487b7100000000000000000000000000000000000000000000000000000000600052602260045260246000fd5b6000600282049050600182168061046357607f821691505b602082108114156104775761047661041c565b5b5091905056fea26469706673582212205804af83334260360aa975dab2606eb0bc61fb22dd2d4ee65b8b1e8c6c2b77e164736f6c63430008090033a26469706673582212200bb184bfb9bfbb01783de5c9ee5a906029afd7a28fd37219d5f2604d607cae6a64736f6c63430008090033",
  "immutableReferences": {},
  "source": "// SPDX-License-Identifier: MIT\r\npragma solidity 0.8.9;\r\n\r\nimport \"./Product.sol\";\r\n\r\ncontract Company{\r\n\r\n  mapping(string=>address) public products;\r\n  address public owner;\r\n  string public name;\r\n\r\n  constructor() {\r\n    owner=msg.sender;\r\n    name='Nike';\r\n  }\r\n\r\n  modifier auth{\r\n    require(msg.sender==owner);\r\n    _;\r\n  }\r\n\r\n  function createProduct(string memory _id, string memory _name) public auth{\r\n    Product newProduct= new Product(_id,_name,msg.sender);\r\n    products[_id]=address(newProduct);\r\n\r\n  } \r\n\r\n  function verifyProduct(string memory _id) public view returns(bool){\r\n    if(products[_id]==address(0))\r\n    {\r\n      return false;\r\n    }\r\n    else{\r\n      return true;\r\n    }\r\n  } \r\n}\r\n",
  "sourcePath": "D:\\projects\\blockify-react\\blockify\\contracts\\Company.sol",
  "compiler": {
    "name": "solc",
    "version": "0.8.9+commit.e5eed63a.Emscripten.clang"
  },
  "schemaVersion": "3.4.4",
  "updatedAt": "2022-01-11T12:58:42.590Z",
  "networkType": "ethereum",
  "devdoc": {
    "kind": "dev",
    "methods": {},
    "version": 1
  },
  "userdoc": {
    "kind": "user",
    "methods": {},
    "version": 1
  }
}